{
  "contractName": "Marketplace",
  "abi": [
    {
      "inputs": [],
      "stateMutability": "nonpayable",
      "type": "constructor"
    },
    {
      "anonymous": false,
      "inputs": [
        {
          "indexed": false,
          "internalType": "uint256",
          "name": "id",
          "type": "uint256"
        },
        {
          "indexed": false,
          "internalType": "string",
          "name": "name",
          "type": "string"
        },
        {
          "indexed": false,
          "internalType": "uint256",
          "name": "price",
          "type": "uint256"
        },
        {
          "indexed": false,
          "internalType": "address payable",
          "name": "owner",
          "type": "address"
        },
        {
          "indexed": false,
          "internalType": "bool",
          "name": "purchased",
          "type": "bool"
        }
      ],
      "name": "ProductCreated",
      "type": "event"
    },
    {
      "anonymous": false,
      "inputs": [
        {
          "indexed": false,
          "internalType": "uint256",
          "name": "id",
          "type": "uint256"
        },
        {
          "indexed": false,
          "internalType": "string",
          "name": "name",
          "type": "string"
        },
        {
          "indexed": false,
          "internalType": "uint256",
          "name": "price",
          "type": "uint256"
        },
        {
          "indexed": false,
          "internalType": "address payable",
          "name": "owner",
          "type": "address"
        },
        {
          "indexed": false,
          "internalType": "bool",
          "name": "purchased",
          "type": "bool"
        }
      ],
      "name": "ProductPurchased",
      "type": "event"
    },
    {
      "inputs": [],
      "name": "name",
      "outputs": [
        {
          "internalType": "string",
          "name": "",
          "type": "string"
        }
      ],
      "stateMutability": "view",
      "type": "function",
      "constant": true
    },
    {
      "inputs": [],
      "name": "productCount",
      "outputs": [
        {
          "internalType": "uint256",
          "name": "",
          "type": "uint256"
        }
      ],
      "stateMutability": "view",
      "type": "function",
      "constant": true
    },
    {
      "inputs": [
        {
          "internalType": "uint256",
          "name": "",
          "type": "uint256"
        }
      ],
      "name": "products",
      "outputs": [
        {
          "internalType": "uint256",
          "name": "id",
          "type": "uint256"
        },
        {
          "internalType": "string",
          "name": "name",
          "type": "string"
        },
        {
          "internalType": "uint256",
          "name": "price",
          "type": "uint256"
        },
        {
          "internalType": "address payable",
          "name": "owner",
          "type": "address"
        },
        {
          "internalType": "bool",
          "name": "purchased",
          "type": "bool"
        }
      ],
      "stateMutability": "view",
      "type": "function",
      "constant": true
    },
    {
      "inputs": [
        {
          "internalType": "string",
          "name": "_name",
          "type": "string"
        },
        {
          "internalType": "uint256",
          "name": "_price",
          "type": "uint256"
        }
      ],
      "name": "createProduct",
      "outputs": [],
      "stateMutability": "nonpayable",
      "type": "function"
    },
    {
      "inputs": [
        {
          "internalType": "uint256",
          "name": "_id",
          "type": "uint256"
        }
      ],
      "name": "purchaseProduct",
      "outputs": [],
      "stateMutability": "payable",
      "type": "function",
      "payable": true
    }
  ],
  "bytecode": "0x608060405260006001553480156200001657600080fd5b506040518060400160405280601081526020017f64417070204d61726b6574706c61636500000000000000000000000000000000815250600090816200005d9190620002de565b50620003c5565b600081519050919050565b7f4e487b7100000000000000000000000000000000000000000000000000000000600052604160045260246000fd5b7f4e487b7100000000000000000000000000000000000000000000000000000000600052602260045260246000fd5b60006002820490506001821680620000e657607f821691505b602082108103620000fc57620000fb6200009e565b5b50919050565b60008190508160005260206000209050919050565b60006020601f8301049050919050565b600082821b905092915050565b600060088302620001667fffffffffffffffffffffffffffffffffffffffffffffffffffffffffffffffff8262000127565b62000172868362000127565b95508019841693508086168417925050509392505050565b6000819050919050565b6000819050919050565b6000620001bf620001b9620001b3846200018a565b62000194565b6200018a565b9050919050565b6000819050919050565b620001db836200019e565b620001f3620001ea82620001c6565b84845462000134565b825550505050565b600090565b6200020a620001fb565b62000217818484620001d0565b505050565b5b818110156200023f576200023360008262000200565b6001810190506200021d565b5050565b601f8211156200028e57620002588162000102565b620002638462000117565b8101602085101562000273578190505b6200028b620002828562000117565b8301826200021c565b50505b505050565b600082821c905092915050565b6000620002b36000198460080262000293565b1980831691505092915050565b6000620002ce8383620002a0565b9150826002028217905092915050565b620002e98262000064565b67ffffffffffffffff8111156200030557620003046200006f565b5b620003118254620000cd565b6200031e82828562000243565b600060209050601f83116001811462000356576000841562000341578287015190505b6200034d8582620002c0565b865550620003bd565b601f198416620003668662000102565b60005b82811015620003905784890151825560018201915060208501945060208101905062000369565b86831015620003b05784890151620003ac601f891682620002a0565b8355505b6001600288020188555050505b505050505050565b610e8080620003d56000396000f3fe60806040526004361061004a5760003560e01c806306fdde031461004f57806338e76a031461007a5780637acc0b2014610096578063e0f6ef87146100d7578063e9300c6c14610102575b600080fd5b34801561005b57600080fd5b5061006461012b565b60405161007191906107eb565b60405180910390f35b610094600480360381019061008f9190610857565b6101b9565b005b3480156100a257600080fd5b506100bd60048036038101906100b89190610857565b6104fd565b6040516100ce9594939291906108ef565b60405180910390f35b3480156100e357600080fd5b506100ec6105e8565b6040516100f99190610949565b60405180910390f35b34801561010e57600080fd5b5061012960048036038101906101249190610a99565b6105ee565b005b6000805461013890610b24565b80601f016020809104026020016040519081016040528092919081815260200182805461016490610b24565b80156101b15780601f10610186576101008083540402835291602001916101b1565b820191906000526020600020905b81548152906001019060200180831161019457829003601f168201915b505050505081565b6000600260008381526020019081526020016000206040518060a0016040529081600082015481526020016001820180546101f390610b24565b80601f016020809104026020016040519081016040528092919081815260200182805461021f90610b24565b801561026c5780601f106102415761010080835404028352916020019161026c565b820191906000526020600020905b81548152906001019060200180831161024f57829003601f168201915b50505050508152602001600282015481526020016003820160009054906101000a900473ffffffffffffffffffffffffffffffffffffffff1673ffffffffffffffffffffffffffffffffffffffff1673ffffffffffffffffffffffffffffffffffffffff1681526020016003820160149054906101000a900460ff1615151515815250509050600081606001519050600082600001511180156103155750600154826000015111155b61031e57600080fd5b816040015134101561032f57600080fd5b81608001511561033e57600080fd5b3373ffffffffffffffffffffffffffffffffffffffff168173ffffffffffffffffffffffffffffffffffffffff160361037657600080fd5b33826060019073ffffffffffffffffffffffffffffffffffffffff16908173ffffffffffffffffffffffffffffffffffffffff1681525050600182608001901515908115158152505081600260008581526020019081526020016000206000820151816000015560208201518160010190816103f29190610d01565b506040820151816002015560608201518160030160006101000a81548173ffffffffffffffffffffffffffffffffffffffff021916908373ffffffffffffffffffffffffffffffffffffffff16021790555060808201518160030160146101000a81548160ff0219169083151502179055509050508073ffffffffffffffffffffffffffffffffffffffff166108fc349081150290604051600060405180830381858888f193505050501580156104ad573d6000803e3d6000fd5b507f79558d0d7d4d900e2f15c4cc0a665f1acdbe415e44de900ecdd1e5bf12b56f4e600154836020015184604001513360016040516104f09594939291906108ef565b60405180910390a1505050565b600260205280600052604060002060009150905080600001549080600101805461052690610b24565b80601f016020809104026020016040519081016040528092919081815260200182805461055290610b24565b801561059f5780601f106105745761010080835404028352916020019161059f565b820191906000526020600020905b81548152906001019060200180831161058257829003601f168201915b5050505050908060020154908060030160009054906101000a900473ffffffffffffffffffffffffffffffffffffffff16908060030160149054906101000a900460ff16905085565b60015481565b60008251116105fc57600080fd5b6000811161060957600080fd5b6001600081548092919061061c90610e02565b91905055506040518060a0016040528060015481526020018381526020018281526020013373ffffffffffffffffffffffffffffffffffffffff168152602001600015158152506002600060015481526020019081526020016000206000820151816000015560208201518160010190816106979190610d01565b506040820151816002015560608201518160030160006101000a81548173ffffffffffffffffffffffffffffffffffffffff021916908373ffffffffffffffffffffffffffffffffffffffff16021790555060808201518160030160146101000a81548160ff0219169083151502179055509050507fbc59c0c8165864dcceb377dd07d8f431d4303f8e501cb0a0374a10cc68d7183660015483833360006040516107469594939291906108ef565b60405180910390a15050565b600081519050919050565b600082825260208201905092915050565b60005b8381101561078c578082015181840152602081019050610771565b8381111561079b576000848401525b50505050565b6000601f19601f8301169050919050565b60006107bd82610752565b6107c7818561075d565b93506107d781856020860161076e565b6107e0816107a1565b840191505092915050565b6000602082019050818103600083015261080581846107b2565b905092915050565b6000604051905090565b600080fd5b600080fd5b6000819050919050565b61083481610821565b811461083f57600080fd5b50565b6000813590506108518161082b565b92915050565b60006020828403121561086d5761086c610817565b5b600061087b84828501610842565b91505092915050565b61088d81610821565b82525050565b600073ffffffffffffffffffffffffffffffffffffffff82169050919050565b60006108be82610893565b9050919050565b6108ce816108b3565b82525050565b60008115159050919050565b6108e9816108d4565b82525050565b600060a0820190506109046000830188610884565b818103602083015261091681876107b2565b90506109256040830186610884565b61093260608301856108c5565b61093f60808301846108e0565b9695505050505050565b600060208201905061095e6000830184610884565b92915050565b600080fd5b600080fd5b7f4e487b7100000000000000000000000000000000000000000000000000000000600052604160045260246000fd5b6109a6826107a1565b810181811067ffffffffffffffff821117156109c5576109c461096e565b5b80604052505050565b60006109d861080d565b90506109e4828261099d565b919050565b600067ffffffffffffffff821115610a0457610a0361096e565b5b610a0d826107a1565b9050602081019050919050565b82818337600083830152505050565b6000610a3c610a37846109e9565b6109ce565b905082815260208101848484011115610a5857610a57610969565b5b610a63848285610a1a565b509392505050565b600082601f830112610a8057610a7f610964565b5b8135610a90848260208601610a29565b91505092915050565b60008060408385031215610ab057610aaf610817565b5b600083013567ffffffffffffffff811115610ace57610acd61081c565b5b610ada85828601610a6b565b9250506020610aeb85828601610842565b9150509250929050565b7f4e487b7100000000000000000000000000000000000000000000000000000000600052602260045260246000fd5b60006002820490506001821680610b3c57607f821691505b602082108103610b4f57610b4e610af5565b5b50919050565b60008190508160005260206000209050919050565b60006020601f8301049050919050565b600082821b905092915050565b600060088302610bb77fffffffffffffffffffffffffffffffffffffffffffffffffffffffffffffffff82610b7a565b610bc18683610b7a565b95508019841693508086168417925050509392505050565b6000819050919050565b6000610bfe610bf9610bf484610821565b610bd9565b610821565b9050919050565b6000819050919050565b610c1883610be3565b610c2c610c2482610c05565b848454610b87565b825550505050565b600090565b610c41610c34565b610c4c818484610c0f565b505050565b5b81811015610c7057610c65600082610c39565b600181019050610c52565b5050565b601f821115610cb557610c8681610b55565b610c8f84610b6a565b81016020851015610c9e578190505b610cb2610caa85610b6a565b830182610c51565b50505b505050565b600082821c905092915050565b6000610cd860001984600802610cba565b1980831691505092915050565b6000610cf18383610cc7565b9150826002028217905092915050565b610d0a82610752565b67ffffffffffffffff811115610d2357610d2261096e565b5b610d2d8254610b24565b610d38828285610c74565b600060209050601f831160018114610d6b5760008415610d59578287015190505b610d638582610ce5565b865550610dcb565b601f198416610d7986610b55565b60005b82811015610da157848901518255600182019150602085019450602081019050610d7c565b86831015610dbe5784890151610dba601f891682610cc7565b8355505b6001600288020188555050505b505050505050565b7f4e487b7100000000000000000000000000000000000000000000000000000000600052601160045260246000fd5b6000610e0d82610821565b91507fffffffffffffffffffffffffffffffffffffffffffffffffffffffffffffffff8203610e3f57610e3e610dd3565b5b60018201905091905056fea264697066735822122091e73022a3d2d73c4e73407c1a349c148dd182023b9331e78a5a4c1b258f15bf64736f6c634300080f0033",
  "immutableReferences": {},
  "source": "// SPDX-License-Identifier: MIT\r\npragma solidity ^0.8.0;\r\n\r\n\r\n\r\ncontract Marketplace {\r\nstring public name;\r\nuint public productCount = 0;\r\nmapping(uint => Product) public products;\r\n\r\n\r\n\r\nstruct Product {\r\nuint id;\r\nstring name;\r\nuint price;\r\naddress payable owner;\r\nbool purchased;\r\n}\r\n\r\n\r\n\r\nevent ProductCreated(\r\nuint id,\r\nstring name,\r\nuint price,\r\naddress payable owner,\r\nbool purchased\r\n);\r\n\r\n\r\n\r\nevent ProductPurchased(\r\nuint id,\r\nstring name,\r\nuint price,\r\naddress payable owner,\r\nbool purchased\r\n);\r\n\r\n\r\n\r\nconstructor() {\r\nname = \"dApp Marketplace\";\r\n}\r\n\r\n\r\n\r\nfunction createProduct(string memory _name, uint _price) public {\r\n// Require a valid name\r\nrequire(bytes(_name).length > 0);\r\n// Require a valid price\r\nrequire(_price > 0);\r\n// Increment product count\r\nproductCount ++;\r\n// Create the product\r\nproducts[productCount] = Product(productCount, _name, _price, payable(msg.sender), false);\r\n// Trigger an event\r\nemit ProductCreated(productCount, _name, _price, payable(msg.sender), false);\r\n}\r\n\r\n\r\n\r\nfunction purchaseProduct(uint _id) public payable {\r\n// Fetch the product\r\nProduct memory _product = products[_id];\r\n// Fetch the owner\r\naddress payable _seller = _product.owner;\r\n// Make sure the product has a valid id\r\nrequire(_product.id > 0 && _product.id <= productCount);\r\n// Require that there is enough Ether in the transaction\r\nrequire(msg.value >= _product.price);\r\n// Require that the product has not been purchased already\r\nrequire(!_product.purchased);\r\n// Require that the buyer is not the seller\r\nrequire(_seller != msg.sender);\r\n// Transfer ownership to the buyer\r\n_product.owner = payable(msg.sender);\r\n// Mark as purchased\r\n_product.purchased = true;\r\n// Update the product\r\nproducts[_id] = _product;\r\n// Pay the seller by sending them Ether\r\npayable(address(_seller)).transfer(msg.value);\r\n// Trigger an event\r\nemit ProductPurchased(productCount, _product.name, _product.price, payable(msg.sender), true);\r\n}\r\n}",
  "sourcePath": "C:\\Users\\seydi\\Downloads\\marketplace (2)\\marketplace\\src\\contracts\\Markeplace.sol",
  "compiler": {
    "name": "solc",
    "version": "0.8.15+commit.e14f2714.Emscripten.clang"
  },
  "schemaVersion": "3.4.4",
  "updatedAt": "2022-06-23T15:57:04.343Z",
  "networkType": "ethereum",
  "devdoc": {
    "kind": "dev",
    "methods": {},
    "version": 1
  },
  "userdoc": {
    "kind": "user",
    "methods": {},
    "version": 1
  }
}